:100000000C941C2B0C944D2B0C944D2B0C944D2BC1
:100010000C944D2B0C944D2B0C944D2B0C944D2B80
:100020000C944D2B0C944D2B0C944D2B0C944D2B70
:100030000C944D2B0C949CF70C944D2B0C944D2B45
:100040000C944D2B0C94F7890C944D2B0C944D2B48
:100050000C944D2B0C944D2B0C947BA00C9474F1B0
:100060000C944D2B0C94BB310C944D2B0C944D2BBC
:100070000C944D2B0C944D2B0C944D2B0C944D2B20
:100080000C944D2B0C944D2B0C944D2B0C944D2B10
:100090000C944D2B0C944D2B0C944D2B0C944D2B00
:1000A0000C944D2B0C944D2B0C944D2B0C944D2BF0
:1000B0000C944D2B0C944D2B0C944D2B0C944D2BE0
:1000C0000C944D2B0C944D2B0C944D2B0C944D2BD0
:1000D0000C944D2B0C944D2B0C944D2B0C944D2BC0
:1000E0000C944D2B864086409140914091409C401D
:1000F0009C409C40B140A740A740A740D5A0E3A0AA
:10010000FFA00DA127A135A14FA153A155A159A130
:1001100061A198F29DF2A2F2ACF2B6F22FF3C0F216
:10012000C8F2D0F2DAF2E4F2EEF2FDF207F32FF3C6
:1001300011F31BF325F351F354F343F347F34DF35A
:100140008BF358F35CF362F366F36AF370F374F3C2
:1001500078F38BF37EF382F386F3084AD73B3BCEEA
:10016000016E84BCBFFDC12F3D6C74319ABD5683B6
:100170003DDA3D00C77F11BED9E4BB4C3E916BAA6E
:10018000AABE000000803F05A84CCDB2D44EB938BD
:1001900036A9020C50B9918688083CA6AAAA2ABEA4
:1001A000000000803F0048617264636F64656420F2
:1001B00044656661756C742053657474696E677309
:1001C000204C6F616465640053746F7265642073C2
:1001D000657474696E67732072657472696576659B
:1001E00064002044002049002020204D333031207D
:1001F00050005049442073657474696E67733A0007
:10020000205A0020590020204D3230362058004816
:100210006F6D65206F666673657420286D6D293A71
:1002200000204500205A00205800204200205400A1
:1002300020204D323035205300416476616E636575
:1002400064207661726961626C65733A20533D4D3A
:10025000696E20666565647261746520286D6D2F16
:1002600073292C20543D4D696E2074726176656C43
:1002700020666565647261746520286D6D2F732931
:100280002C20423D6D696E696D756D207365676DDB
:10029000656E742074696D6520286D73292C205853
:1002A0003D6D6178696D756D205859206A65726B76
:1002B00020286D6D2F73292C20205A3D6D6178699F
:1002C0006D756D205A206A65726B20286D6D2F73D5
:1002D000292C2020453D6D6178696D756D20452084
:1002E0006A65726B20286D6D2F73290020540020E1
:1002F000204D323034205300416363656C65726178
:1003000074696F6E3A20533D616363656C65726119
:1003100074696F6E2C20543D726574726163742031
:10032000616363656C65726174696F6E002045007E
:10033000205A0020590020204D3230312058004DE5
:100340006178696D756D20416363656C6572617478
:10035000696F6E20286D6D2F7332293A0020450099
:10036000205A0020590020204D3230332058004DB3
:100370006178696D756D2066656564726174657319
:1003800020286D6D2F73293A00204500205A002047
:10039000590020204D393220580053746570732065
:1003A00070657220756E69743A0053657474696E75
:1003B00067732053746F7265640053544F505045F7
:1003C000442E20005072696E7465722073746F70D1
:1003D0007065642064756520746F206572726F7239
:1003E000732E2046697820746865206572726F727A
:1003F00020616E6420757365204D39393920746F22
:1004000020726573746172742E202854656D706556
:100410007261747572652069732072657365742EDC
:10042000205365742069742061667465722072655A
:100430007374617274696E6729004B494C4C454472
:100440002E20005072696E7465722068616C74654C
:10045000642E206B696C6C28292063616C6C656468
:1004600021006F6B00526573656E643A20002200B4
:10047000556E6B6E6F776E20636F6D6D616E643A53
:100480002022004368616E67652066696C616D6556
:100490006E74006C636420636F6E74726173742099
:1004A00076616C75653A20007A5F6D61783A20005C
:1004B0007A5F6D696E3A2000795F6D61783A20004D
:1004C000795F6D696E3A2000785F6D61783A20003F
:1004D000785F6D696E3A2000205A3A0020593A0040
:1004E00020436F756E7420583A200020453A002052
:1004F0005A3A0020593A00583A004649524D57415D
:1005000052455F4E414D453A4D61726C696E2031E6
:100510002E302E322B20446576656C6F706D656EC3
:10052000742046726F6D204172636869766520534E
:100530004F555243455F434F44455F55524C3A68CF
:10054000747470733A2F2F6769746875622E636FC5
:100550006D2F4D61726C696E4669726D776172655F
:100560002F4D61726C696E2050524F544F434F4C67
:100570005F56455253494F4E3A312E30204D41433C
:1005800048494E455F545950453A54415A204558C0
:100590005452554445525F434F554E543A312055BD
:1005A0005549443A65396131663435362D35373031
:1005B000632D343336322D623537322D6463643126
:1005C00031303136333935310A0054415A204F66C3
:1005D000662E0054415A2072656164792E0042658E
:1005E0006420646F6E652E0020423A0020453A0078
:1005F000543A004265642048656174696E672E0054
:1006000048656174696E6720646F6E652E002057BF
:100610003A0020453A00543A0048656174696E67B3
:100620002E2E2E002042403A0020403A00202F007B
:100630003A00205400202F0020423A00202F006F63
:100640006B20543A002569206D696E2C20256920A5
:1006500073656300456E642066696C65206C697320
:100660007400426567696E2066696C65206C697309
:1006700074004E6F206D6F76652E0054415A2072C3
:10068000656164792E00526573756D696E672070BF
:1006900072696E74005761697420666F7220757399
:1006A00065722E2E2E00536C6565702E2E2E002541
:1006B0006920686F757273202569206D696E757485
:1006C000657300446F6E65207072696E74696E6741
:1006D0002066696C650053544F505045442E2000ED
:1006E0005072696E7465722073746F7070656420E7
:1006F00064756520746F206572726F72732E204668
:10070000697820746865206572726F7220616E640A
:1007100020757365204D39393920746F20726573E7
:10072000746172742E202854656D706572617475E1
:1007300072652069732072657365742E2053657429
:1007400020697420616674657220726573746172C9
:1007500074696E6729004E6F204C696E65204E7576
:100760006D626572207769746820636865636B7376
:10077000756D2C204C617374204C696E653A2000B5
:100780004E6F20436865636B73756D20776974687D
:10079000206C696E65206E756D6265722C204C61EF
:1007A0007374204C696E653A2000636865636B73EF
:1007B000756D206D69736D617463682C204C617375
:1007C00074204C696E653A20004C696E65204E7548
:1007D0006D626572206973206E6F74204C61737452
:1007E000204C696E65204E756D6265722B312C2030
:1007F0004C617374204C696E653A20004D31313084
:1008000000446F6E6520736176696E672066696C5F
:10081000652E006F6B004D3239002020506C616EE8
:100820006E657242756666657242797465733A20C8
:10083000002046726565204D656D6F72793A200023
:10084000466562203131203230313600436F6D70A1
:10085000696C65643A2000284A6172727964205498
:10086000696C62726F6F6B2C2054415A204533447F
:1008700020436F6E6669672900207C20417574688B
:100880006F723A20004665622031312032303136B5
:100890002031323A30383A343100204C61737420C0
:1008A000557064617465643A200020312E302E3218
:1008B0002B004D61726C696E0020536F6674776116
:1008C00072652052657365740020576174636864B3
:1008D0006F67205265736574002042726F776E20D7
:1008E0006F75742052657365740020457874657265
:1008F0006E616C20526573657400506F7765725538
:1009000070007374617274002200656E71756569A0
:100910006E672022002200656E717565696E672022
:100920002200FFFFFF0000A0400000A04000008068
:100930004000008C430080844300007A43000000A4
:1009400000000000000000000000008C43008084D4
:100950004300007A43000000000000000000000097
:10096000006563686F3A004572726F723A007C3CB2
:100970003E5E2B3D3F2F5B5D3B2C2A225C004D38B9
:100980003420582059205A20450043616E6E6F7400
:1009900020656E746572207375626469723A200016
:1009A0004D3234004D3233202573006175746F254C
:1009B000692E67006572726F722077726974696E52
:1009C0006720746F2066696C65004E6F7420534415
:1009D000207072696E74696E67002F005344207036
:1009E00072696E74696E67206279746520002E00EA
:1009F00044656C6574696F6E206661696C65642C12
:100A00002046696C653A200046696C652064656C17
:100A1000657465643A002E006F70656E20666169CA
:100A20006C65642C2046696C653A200057726974C5
:100A3000696E6720746F2066696C653A20002E002D
:100A40006F70656E206661696C65642C2046696C08
:100A5000653A20002E006F70656E206661696C65D6
:100A6000642C2046696C653A200046696C652073E9
:100A7000656C6563746564002053697A653A20008B
:100A800046696C65206F70656E65643A20002E00C3
:100A90006F70656E206661696C65642C2046696CB8
:100AA000653A20004E6F772066726573682066692C
:100AB0006C653A20004E6F7720646F696E67206620
:100AC000696C653A20002220706F730022207061EB
:100AD00072656E743A2200535542524F5554494E36
:100AE000452043414C4C207461726765743A220082
:100AF000747279696E6720746F2063616C6C207307
:100B000075622D67636F64652066696C6573207715
:100B100069746820746F6F206D616E79206C6576E2
:100B2000656C732E204D4158206C6576656C20698C
:100B3000733A0053442063617264206F6B006F70DE
:100B4000656E526F6F74206661696C656400766FC4
:100B50006C756D652E696E6974206661696C65647B
:100B600000534420696E6974206661696C002074CA
:100B70006F6F206C6F6E6720657874727573696F24
:100B80006E2070726576656E7465640020636F6CAC
:100B90006420657874727573696F6E207072657603
:100BA000656E7465640045313A200045303A200096
:100BB0005A3A2000593A2000583A20004D53312C1F
:100BC0004D53322050696E730A00656E6473746F02
:100BD0007073206869743A205A00205A3A00656E92
:100BE0006473746F7073206869743A2059002059D7
:100BF0003A00656E6473746F7073206869743A208C
:100C0000580020583A00656E6473746F70732068E2
:100C100069743A200024F4D43050C38E20C2A2401C
:100C200017828B7011127A910D816CD90AA861E13B
:100C300008C7586607615143061E4B5D05C145A7AD
:100C4000041A411104093D9803713931034036DB20
:100C50000265339102D4305402802E1D02632CEEC3
:100C600001752AC501B028A001102781018F2564D4
:100C7000012B244B01E0223401AC211F018D200DFA
:100C800001801FFC00841EED00971DDF00B81CD200
:100C900000E61BC600201BBC00641AB200B219A8F3
:100CA000000A19A0006A189900D117910040178B0B
:100CB00000B516840031167E00B31579003A15731D
:100CC00000C7146F0058146A00EE1366008813639F
:100CD0000025135E00C7125B006C125700151254FA
:100CE00000C111510070114F0021114B00D6104965
:100CF000008D1047004610440002104200C00F4013
:100D000000800F3E00420F3C00060F3B00CB0E3828
:100D100000930E37005C0E3500270E3400F30D32C1
:100D200000C10D3100900D3000600D2E00320D2DF0
:100D300000050D2C00D90C2B00AE0C2900850C29C8
:100D4000005C0C2700350C27000E0C2600E80B2455
:100D500000C40B2400A00B23007D0B23005A0B21A1
:100D600000390B2100180B2000F80A1F00D90A1EB9
:100D700000BB0A1E009D0A1D00800A1D00630A1C9C
:100D800000470A1B002C0A1B00110A1A00F7091A57
:100D900000DD091900C4091900AB091900920917EF
:100DA000007B091800630917004C09160036091664
:100DB00000200916000A091500F5081500E00814BE
:100DC00000CC081400B8081400A4081400900813FC
:100DD000007D0812006B0813005808120046081224
:100DE0000034081100230811001208110001081135
:100DF00000F0071000E0071000D0071000C0071037
:100E000000B0070F00A107100091070E0083070F25
:100E10000074070F0065070E0057070E0049070E04
:100E2000003B070D002E070E0020070D0013070DD5
:100E30000006070D00F9060C00ED060D00E0060C9B
:100E400000D4060C00C8060C00BC060C00B0060C52
:100E500000A4060B0099060C008D060B0082060B01
:100E60000077060B006C060B0061060A0057060BA4
:100E7000004C060A0042060A0038060A002E060A3E
:100E80000024060A001A060A001006090007060ACE
:100E900000FD050900F4050900EB050900E205095C
:100EA00000D9050900D0050900C7050900BE0509DC
:100EB00000B5050800AD050800A50509009C05085A
:100EC00000940508008C050800840508007C0508CE
:100ED00000740508006C050700650508005D05073E
:100EE00000560508004E05070047050700400508A5
:100EF0000038050700310507002A0507002305070C
:100F0000001C050600160507000F0507000805066A
:100F10000002050700FB040600F5040700EE0406C6
:100F200000E8040600E2040700DB040600D504061E
:100F300000CF040600C9040600C3040600BD040671
:100F400000B7040600B1040500AC040600A60406C0
:100F500000A00405009B040600950405009004060B
:100F6000008A04050085040500800406007A040553
:100F70000075040500700405006B04050066040597
:100F800000610405005C04050057040500520405D7
:100F9000004D04050048040500430405003E040418
:100FA000003A04050035040500300404002C040553
:100FB0000027040400230405001E0404001A04048E
:100FC0000016040500110404000D040400090405C2
:100FD000000404040000040400FC030400F80304FB
:100FE00000F4030400F0030400EC030400E803042D
:100FF00000E4030400E0030400DC030400D803045D
:1010000000D4030400D0030400CC030400C803038D
:1010100000C503030024F404D9201BC40C5C0E9803
:1010200004C4095F0265077101F405F900FB04B30C
:101030000048048700C103690058035500030345B5
:1010400000BE023A008402310053022A0029022520
:101050000004022000E4011C00C8011900AF0117C0
:101060000098011400840113007101100061011047
:101070000051010E0043010D0036010B002B010B46
:101080000020010B00150109000C010900030108F3
:1010900000FB000800F3000800EB000700E4000676
:1010A00000DE000600D8000600D2000600CC0005D5
:1010B00000C7000500C2000500BD000400B900041F
:1010C00000B5000400B1000400AD000400A9000454
:1010D00000A5000300A20003009F0004009B000382
:1010E00000980003009500020093000300900003A5
:1010F000008D0002008B00030088000200860002C1
:101100000084000300810002007F0002007D0002D5
:10111000007B0002007900020077000100760002E7
:10112000007400020072000100710002006F0002F2
:10113000006D0001006C0002006A000100690002FD
:101140000067000100660001006500010064000204
:10115000006200010061000100600001005F000208
:10116000005D0001005C0001005B0001005A00010D
:10117000005900010058000100570001005600010D
:10118000005500010054000100530000005300010D
:10119000005200010051000100500001004F000109
:1011A000004E0000004E0001004D0001004C000107
:1011B000004B0000004B0001004A00010049000103
:1011C0000048000000480001004700010046000000
:1011D00000460001004500000045000100440001F8
:1011E00000430000004300010042000000420001F3
:1011F000004100000041000100400001003F0000EC
:10120000003F0001003E0000003E0001003D0000E4
:10121000003D0001003C0000003C0000003C0001DB
:10122000003B0000003B0001003A0000003A0001D2
:1012300000390000003900010038000000380000CB
:1012400000380001003700000037000100360000C0
:1012500000360000003600010035000000350000B7
:1012600000350001003400000034000000340001AB
:1012700000330000003300000033000100320000A2
:101280000032000000320001003100000031000097
:10129000003100010030000000300000003000018B
:1012A000002F0000002F0000002F0000002F000181
:1012B000002E0000002E0000002E0001002D000076
:1012C000002D0000002D0000002D0001002C00006A
:1012D000002C0000002C0000002C0001002B00005E
:1012E000002B0000002B0000002B0001002A000052
:1012F000002A0000002A0000002A00010029000046
:101300000029000000290000002900000029000138
:10131000002800000028000000280000002800002D
:10132000002800010027000000270000002700001F
:101330000027000000270001002600000026000012
:101340000026000000260000002600010025000005
:1013500000250000002500000025000000250000F9
:1013600000250001002400000024000000240000EB
:1013700000240000002400010023000000230000DE
:1013800000230000002300000023000000230000D1
:1013900000230001002200000022000000220000C3
:1013A00000220000002200000022000100210000B5
:1013B00000210000002100000021000000210000A9
:1013C000002100000021000100200000002000009A
:1013D000002000000020000000200000002000008D
:1013E0000020000000200001001F0000001F00007E
:1013F000001F0000001F0000001F0000001F000071
:10140000001F0001001E0000001E0000001E000062
:10141000001E0000004572723A204D415854454D5F
:1014200050204245440054656D7065726174757258
:1014300065206865617465642062656420737769FE
:101440007463686564206F66662E204D415854456C
:101450004D502074726967676572656420212100B0
:101460004572723A204D494E54454D50003A204540
:1014700078747275646572207377697463686564E3
:10148000206F66662E204D494E54454D5020747293
:10149000696767657265642021004572723A204D64
:1014A000415854454D50003A204578747275646532
:1014B00072207377697463686564206F66662E2096
:1014C0004D415854454D5020747269676765726587
:1014D00064202100544845524D414C2052554E4104
:1014E0005741590062656400546865726D616C20F3
:1014F00052756E617761792C2073797374656D20F4
:1015000073746F7070656421204865617465725FE3
:1015100049443A2000202D20496E76616C69642090
:101520006578747275646572206E756D626572207F
:101530002100504944204175746F74756E652066B2
:10154000696E6973686564212050757420746865DC
:10155000206C617374204B702C204B6920616E6489
:10156000204B6420636F6E7374616E7473206672B7
:101570006F6D2061626F766520696E746F20436FB6
:101580006E66696775726174696F6E2E6800504986
:1015900044204175746F74756E65206661696C6571
:1015A00064212074696D656F75740020403A006F86
:1015B0006B20543A006F6B20423A0050494420415E
:1015C00075746F74756E65206661696C6564212041
:1015D00054656D706572617475726520746F6F20EB
:1015E0006869676800204B643A2000204B693A2004
:1015F00000204B703A200020436C617373696320B4
:1016000050494420002054753A2000204B753A2060
:1016100000206D61783A2000206D696E3A2000202C
:10162000643A200020626961733A20001000AD0323
:1016300030016A0150022B0170030A019004F50089
:10164000B005E500D006D800F007CE001009C500AF
:10165000300ABE00500BB700700CB100900DAB000B
:10166000B00EA600D00FA200F0109D00101299003D
:10167000301395005014920070158E0090168B0058
:10168000B0178700D0188400F0198100101B7E006D
:10169000301C7B00501D7900701E7600901F730077
:1016A000B0207000D0216E00F0226B001024690081
:1016B00030256600502663007027610090285E0088
:1016C000B0295C00D02A5900F02B5600102D540090
:1016D000302E5100502F4E0070304B00903148009A
:1016E000B0324500D0334200F0343E0010363B00AB
:1016F000303737005038330070392E00903A2900C7
:10170000B03B2300D03C1B00F03D1100103F010016
:10171000F03F00001000C90210012C01400122011D
:1017200070011801B0010E01F00104015002FA002D
:10173000B002F0003003E600D003DC009004D200D9
:101740007005C800A006BE000008B400B009AA00D9
:10175000D00BA000600E960060118C000015820076
:1017600020197800C01D6E00A0226400B0275A0026
:10177000902C500000314600E0343C00103832001C
:10178000903A2800603C1E00A03D1400803E0A00F4
:10179000203F0000436172642072656D6F7665645E
:1017A000004361726420696E736572746564004DF4
:1017B00033303020533639382050323030004D33FA
:1017C00030302053363539205032303000B02000D0
:1017D000B0200059002D2D3A2D2D004D363030000F
:1017E0004368616E67652066696C616D656E740043
:1017F000466C6F77203000466C6F77203000466C67
:101800006F7700466C6F770046616E207370656578
:10181000640046616E207370656564004265640013
:10182000426564004E6F7A7A6C65004E6F7A7A6C0E
:1018300065005370656564005370656564004D61B3
:10184000696E005072656865617420504C41204299
:101850006564005072656865617420504C412031A8
:1018600000507265706172650050726568656174E0
:10187000204142532042656400507265686561747E
:1018800020414253203100507265706172650058EA
:101890000059005A00457874727564657200457885
:1018A000747275646572004D6F7665205A004D6FD5
:1018B00076652059004D6F76652058004D6F76652E
:1018C0002061786973004D6F766520302E316D6D23
:1018D000004D6F766520316D6D004D6F766520315E
:1018E000306D6D0050726570617265004D6F766588
:1018F0002061786973004D383000537769746368EC
:1019000020706F776572206F6E004D38310053770D
:101910006974636820706F776572206F6666004334
:101920006F6F6C646F776E005072656865617420CC
:10193000414253005072656865617420504C41000B
:1019400053657420686F6D65206F66667365747388
:1019500000473238004175746F20686F6D65004D27
:1019600038340044697361626C652073746570700B
:10197000657273004D61696E0053746F7265206DFE
:10198000656D6F72790042656400426564004E6F58
:101990007A7A6C65004E6F7A7A6C650046616E20CB
:1019A00073706565640046616E20737065656400E0
:1019B00054656D70657261747572650053746F72F1
:1019C00065206D656D6F72790042656400426564E3
:1019D000004E6F7A7A6C65004E6F7A7A6C650046BD
:1019E000616E2073706565640046616E207370657A
:1019F00065640054656D7065726174757265005040
:101A00007265686561742041425320636F6E6600A1
:101A10005072656865617420504C4120636F6E663A
:101A2000005049442D43005049442D43005049443F
:101A30002D44005049442D44005049442D49005044
:101A400049442D49005049442D50005049442D50DF
:101A50000020022046616374002002204661637406
:101A6000002002204D6178002002204D6178002086
:101A700002204D696E002002204D696E004F66669F
:101A8000004F6E20004F6666004F6E200041757457
:101A90006F74656D700046616E20737065656400DB
:101AA00046616E207370656564004265640042653E
:101AB00064004E6F7A7A6C65004E6F7A7A6C6500BE
:101AC000436F6E74726F6C004573746570732F6D25
:101AD0006D004573746570732F6D6D005A73746576
:101AE00070732F6D6D005A73746570732F6D6D0078
:101AF0005973746570732F6D6D00597374657073CD
:101B00002F6D6D005873746570732F6D6D00587371
:101B1000746570732F6D6D00412D72657472616311
:101B20007400412D7265747261637400416D617857
:101B3000206500416D6178206500416D6178207AF3
:101B400000416D6178207A00416D61782079004113
:101B50006D6178207900416D6178207800416D6178
:101B6000782078005654726176206D696E00565464
:101B7000726176206D696E00566D696E00566D69F2
:101B80006E00566D6178206500566D6178206500A5
:101B9000566D6178207A00566D6178207A00566D16
:101BA0006178207900566D6178207900566D6178F2
:101BB000207800566D617820780056652D6A657230
:101BC0006B0056652D6A65726B00567A2D6A6572D8
:101BD0006B00567A2D6A65726B005678792D6A65AE
:101BE000726B005678792D6A65726B00416363658C
:101BF0006C00416363656C00436F6E74726F6C00C0
:101C000046696C2E204469612E20310046696C2E95
:101C1000204469612E2031004F6666004F6E20001F
:101C20004F6666004F6E20004520696E206D6D3353
:101C300000436F6E74726F6C004C434420636F6E90
:101C4000747261737400526573746F72652066619B
:101C5000696C73616665004C6F6164206D656D6FC2
:101C600072790053746F7265206D656D6F727900C3
:101C70004C434420636F6E74726173740046696CE8
:101C8000616D656E74004D6F74696F6E0054656DA3
:101C90007065726174757265004D61696E004D38D2
:101CA0003420582059205A2045004D3234004D32FE
:101CB0003320257300F92E2E004D61696E004E6FA2
:101CC0002053442063617264005072696E74206610
:101CD000726F6D2053440053746F70207072696E80
:101CE0007400526573756D65207072696E74005072
:101CF00061757365207072696E7400436F6E7472E3
:101D00006F6C00507265706172650054756E65008D
:101D1000496E666F2073637265656E000000000097
:101D200000000000000000007FFFE0000000000055
:101D3000000000000000007000E000000000000053
:101D400000000000000061F86000000000000000DA
:101D5000000000000041F82000000000000000002A
:101D60000000000040F02000000000000000000023
:101D700000000040602000000000000000000000A3
:101D800000005801A07F80003FC0003FC000410418
:101D9000005C63A0FBC00079E00079E000208200D5
:101DA0005EF7A0F3C00076E00076E0002082005EDF
:101DB000F7A0EBC0007EE0007EE0004104005C6321
:101DC000A07B80003DC00039C0008208005801A0FF
:101DD0007B80003BC0003EC001041000406020FB3F
:101DE000C00077E00076E00104100040F020FBC066
:101DF0000070E00079E00082080041F820FFC00098
:101E00007FE0007FE00041040061F8603F00001FB8
:101E100080001F80000000007000E01E00000F0026
:101E2000000F0001FFFF807FFFE00C0000060000B4
:101E3000060001FFFF80000000000000000000001D
:101E400000000000007FFFE0000000000000000034
:101E5000000000007000E000000000000000000032
:101E6000000000630C6000000000000000000000A3
:101E70000000470E200000000000000000000000ED
:101E8000004F0F20000000000000000000000000D4
:101E90005F0FA00000000000000000000000005ED6
:101EA00007A07F80003FC0003FC0004104004060A9
:101EB00020FBC00079E00079E00020820040F020A3
:101EC000F3C00076E00076E00020820040F020EBD6
:101ED000C0007EE0007EE0004104004060207B8086
:101EE000003DC00039C0008208005E07A07B800072
:101EF0003BC0003EC0010410005F0FA0FBC0007794
:101F0000E00076E0010410004F0F20FBC00070E0FD
:101F10000079E000820800470E20FFC0007FE0004B
:101F20007FE000410400630C603F00001F80001F41
:101F300080000000007000E01E00000F00000F0095
:101F400001FFFF807FFFE00C00000600000600019B
:101F5000FFFF800000000000000000000000000003
:101F60000000000000000000000000000000000071
:101F70000000000000000000000C00000000000055
:101F8000000C000000000000001200000000000033
:101F900000230000000000000021000000000000FD
:101FA000004C800000000000005E80000000000087
:101FB000009240000000000000A14000000000006E
:101FC0000121200000000000027F900000000000BE
:101FD000020010000000000007FFF80000000000F1
:101FE00004000800000000000800040000000000D9
:101FF00008000600000000001000020000000000C1
:10200000301E010000000000207F81000000000061
:1020100041FFE0800000000043FCF0800000000071
:10202000873B7840000000018EDBFC60000000016F
:102030000FEBCC20000000021FEDB61000000002E4
:102040001FDEB6100000000439CD7F080000000438
:1020500036E0FF08000000087EC0BB8400000018C6
:102060007F005D86000000107FC0ED820000002030
:102070003CC07301000000203B337F010000007072
:102080001BE77E03800000C81DEEDE04C000008850
:102090000FDEDC04400001240FDF3C092000012694
:1020A00007DBF8192000027203E7F01390000251D9
:1020B00001FFE02290000489007F80244800090489
:1020C000801E004824000BFE400000DFF4001000DA
:1020D0004000008002001FFFFFFFFFFFFE00000026
:1020E00000000000000000000000000000000000F0
:1020F0000000000000001022103C3C0E1F001022C7
:1021000010042211040010221008221104001022D1
:1021100010083C110400102210102211040010229B
:102120001020221104001E1C1E3C3C0E0400000066
:10213000000000000000000000000000000000009F
:10214000000000000000000000000000000000008F
:10215000000000000000000000000000000000007F
:10216000000000000000000000000000000000006F
:10217000000000000000000000000000000000005F
:10218000000000000000000000000000000000004F
:102190000000000000060900FE070199032B20FF44
:1021A000FE08FE07FE000000060000010707060209
:1021B0000080808080800080030303060104A0A0CB
:1021C000A00507070600005050F850F850500507CA
:1021D000070600002070A070287020050707060081
:1021E0000048A8502050A89005070706000040A00E
:1021F000A040A890680103030602048080800307C2
:102200000706010020408080804020030707060168
:1022100000804020202040800505050600018850F0
:10222000F850880505050600012020F8202003034A
:10223000030601FF604080050101060003F8030367
:10224000030601FF40E040050707060000080810EC
:1022500020408080050707060000205088888850AD
:10226000200507070600002060A0202020F80507B1
:1022700007060000708808304080F8050707060050
:1022800000F80810300888700507070600001030B5
:102290005090F81010050707060000F880B0C80835
:1022A0008870050707060000304080B0C8887005B8
:1022B0000707060000F80810102040400507070631
:1022C0000000708888708888700507070600007015
:1022D0008898680810600307070601FF40E0400087
:1022E00040E0400307070601FF40E04000604080F7
:1022F000040707060100102040804020100503035A
:10230000060002F800F804070706010080402010CC
:10231000204080050707060000708810202000205C
:10232000050707060000708898A8B08070050707A9
:1023300006000020508888F88888050707060000F6
:10234000F04848704848F00507070600007088808C
:1023500080808870050707060000F0484848484814
:10236000F0050707060000F88080F08080F8050778
:1023700007060000F88080F08080800507070600CF
:10238000007088808098887005070706000088889C
:1023900088F8888888030707060100E0404040402D
:1023A00040E0050707060000381010101090600587
:1023B00007070600008890A0C0A0908805070706C0
:1023C0000000808080808080F80507070600008874
:1023D00088D8A88888880507070600008888C8A8C4
:1023E00098888805070706000070888888888870A4
:1023F000050707060000F08888F08080800508083F
:102400000600FF7088888888A870080507070600FE
:1024100000F08888F0A09088050707060000708803
:102420008070088870050707060000F8202020202B
:10243000202005070706000088888888888870059E
:1024400007070600008888885050502005070706B7
:102450000000888888A8A8D8880507070600008893
:10246000885020508888050707060000888850207B
:10247000202020050707060000F80810204080F8FB
:10248000030707060100E08080808080E0050707E1
:10249000060000808040201008080307070601009E
:1024A000E02020202020E0050303060004205088BF
:1024B0000501010600FFF80202020602068040053F
:1024C00005050600007008788878050707060000F3
:1024D0008080B0C888C8B0050505060000708880F7
:1024E000887005070706000008086898889868053E
:1024F00005050600007088F88070050707060000D3
:10250000304840F04040400507070600FE788888C4
:10251000780888700507070600008080B0C88888A2
:10252000880307070601004000C0404040E004095E
:10253000090601FE1000301010109090600507078A
:1025400006000080808890E090880307070601005D
:10255000C04040404040E0050505060000D0A8A866
:10256000A888050505060000B0C888888805050507
:1025700006000070888888700507070600FEB0C84E
:1025800088C8B080800507070600FE6898889868AC
:102590000808050505060000B0C88080800505050F
:1025A00006000070807008F0050707060000404034
:1025B000F040404830050505060000888888986886
:1025C0000505050600008888505020050505060011
:1025D000008888A8A85005050506000088502050EE
:1025E000880507070600FE88889868088870050532
:1025F00005060000F8102040F80407070601003027
:102600004020C02040300107070602008080808003
:10261000808080040707060100C02040304020C0B1
:1026200005030306000448A8900000000100000014
:102630000000010000000000010000000000010097
:102640000000000001000000000001000000000088
:102650000100000000000100000000000100000077
:102660000000010000000000010000000000010067
:102670000000000001000000000001000000000058
:102680000100000000000100000000000100000047
:102690000000010000000000010000000000010037
:1026A0000000000001000000000001000000000028
:1026B0000100000000000100000000000100000017
:1026C0000000010000000000010000000000010007
:1026D00000000000010000000000010000000000F8
:1026E00001000000000001000000000001000000E7
:1026F00000000600000107070602008000808080BD
:1027000080800507070600FF2078A0A0A07820059C
:102710000707060000304840E04048B005050506C0
:10272000000088705070880508080600FF888850EF
:1027300020F820202001070706020080808000800A
:1027400080800508080600FF7080E0904838087017
:10275000030101060107A00507070600007088A80D
:10276000C8A888700406060601017090B05000F0F9
:1027700006050506000024489048240402020601CC
:1027800002F010040101060103F00507070600002E
:102790007088E8C8C88870050101060007F80303BF
:1027A0000306010440A0400506060600002020F8AC
:1027B0002020F804050506010360902040F0040580
:1027C00005060103E0106010E00202020602064066
:1027D000800506060600FF888888C8B080050707C0
:1027E00006000078E8E868282828010101060203AD
:1027F000800202020602FE40800305050601034036
:10280000C04040E00406060601016090906000F0C0
:1028100006050506000090482448900609090600B0
:10282000FF40C04040E40C143C040609090600FFC8
:1028300040C04040E81404081C0509090600FFC018
:10284000204020C818287808050707060000200047
:102850002020408870050808060000402070888805
:10286000F888880508080600001020708888F88815
:10287000880508080600002050708888F8888805B8
:10288000080806000048B0708888F888880508089D
:102890000600005000708888F8888805080806003F
:1028A000002050708888F888880607070600003CDA
:1028B00050909CF0909C0509090600FE708880806D
:1028C000808870204005080806000040F88080F0ED
:1028D0008080F805080806000010F88080F08080ED
:1028E000F805080806000020F88080F08080F805D0
:1028F000080806000050F88080F08080F80308087F
:102900000601008040E040404040E0030808060126
:10291000002040E040404040E0030808060100403D
:10292000A0E040404040E0030808060100A000E0AD
:1029300040404040E0050707060000F04848E848EE
:1029400048F0050808060000285088C8A89888881C
:1029500005080806000040207088888888700508EF
:10296000080600001020708888888870050808060E
:1029700000002050708888888870050808060000CC
:102980002850708888888870050808060000500064
:1029900070888888887005050506000088502050DA
:1029A00088050707060000709898A8C8C870050831
:1029B0000806000040208888888888700508080676
:1029C00000001020888888888870050808060000A4
:1029D000205000888888887005080806000050008C
:1029E0008888888888700508080600001020888874
:1029F0005020202005070706000080F088F0808026
:102A000080050707060000708890A09088B0050830
:102A1000080600004020007008788878050808063D
:102A2000000010200070087888780508080600006B
:102A300020500070087888780508080600002850A3
:102A400000700878887805070706000050007008B5
:102A500078887805080806000020502070087888DB
:102A60007806050506000078147C907C05070706AB
:102A700000FE70888088702040050808060000402D
:102A800020007088F88070050808060000102000FB
:102A90007088F880700508080600002050007088D3
:102AA000F8807005070706000050007088F88070F5
:102AB000030808060100804000C0404040E00308D1
:102AC00008060100408000C0404040E003080806BE
:102AD000010040A000C0404040E0060A0A0600FE97
:102AE000A4A800FC8480808084FC060A0A0600FEFC
:102AF000549400FC8404040484FC050808060000C7
:102B0000285000B0C88888880508080600004020C2
:102B1000007088888870040A0A0602FE304080909F
:102B2000909090909090040A0A0600FEC0201090A9
:102B3000909090909090060707060001448C8C843A
:102B400080403C06070706000188C4C4840408F0DE
:102B50000505050600012000F8002005080806000C
:102B60000040F0C88888987810050808060000E042
:102B7000F88888888888F80505050600012030F85F
:102B800030200508080600002070F820202020E0F2
:102B90000509090600FF2070A8A8B88888502005FC
:102BA00009090600FFE080C0B0A8A8302828050960
:102BB000090600FFF8A88888888888A8F8050A0A06
:102BC0000600FE205050505088A8A88870000609C2
:102BD00000FE06018902FE20FFFE07FE06FE000041
:102BE0000006000701060606020080808080008043
:102BF000030303060103A0A0A00507070600FF507A
:102C000050F850F850500509090600FE2070A8A0A1
:102C10007028A870200608080600FF40A848102069
:102C20004854080507070600FF6090906098906878
:102C30000103030602038080800207070602FF40AB
:102C40008080808080400207070602FF804040406D
:102C50004040800505050600008850F850880505AD
:102C6000050600002020F820200204040602FEC011
:102C7000404080050101060002F80202020602003F
:102C8000C0C0040606060100101020408080040623
:102C90000606010060909090906003060606010011
:102CA00040C0404040E0040606060100609010204D
:102CB00040F0040606060100F020601010E0050652
:102CC0000606000010305090F810040606060100B9
:102CD000F080E01010E00406060601006080E0903D
:102CE0009060040606060100F01010204040040623
:102CF00006060100609060909060040606060100E0
:102D0000609090701060020505060200C0C000C00F
:102D1000C00207070602FEC0C000C0404080050593
:102D2000050600001860806018050303060001F81E
:102D300000F8050505060000C0300830C00407078C
:102D40000601006090106040004005060606000085
:102D50007090A8B08070050606060000205088F824
:102D60008888050606060000F088F08888F00406CA
:102D7000060601006090808090600406060601004F
:102D8000E090909090E0040606060100F080E0805C
:102D900080F0040606060100F080E08080800406D2
:102DA00006060100609080B09060040606060100EF
:102DB0009090F0909090030606060100E04040409D
:102DC00040E005060606000038101010906004066A
:102DD0000606010090A0C0A090900406060601001F
:102DE0008080808080F005060606000088D8A8A8AC
:102DF000888804060606010090D0B09090900506E1
:102E0000060600007088888888700406060601009F
:102E1000E09090E080800407070601FF609090D06A
:102E2000B06010040606060100E09090E090900467
:102E30000606060100609040209060050606060028
:102E400000F8202020202004060606010090909023
:102E5000909060040606060100909090F060600576
:102E600006060600008888A8A8D888050606060079
:102E700000885020205088050606060000888850EB
:102E8000202020040606060100F010204080F003F8
:102E90000606060100E080808080E0040606060148
:102EA00000808040201010030606060100E020206C
:102EB0002020E005030306000320508805010106D9
:102EC00000FEF80202020602048040040404060127
:102ED00000709090700406060601008080E09090DB
:102EE000E0040404060100708080700406060601F8
:102EF0000010107090907004040406010060B0C0CF
:102F000070040606060100205040E040400406061A
:102F10000601FE60909070106004060606010080B5
:102F200080E09090900306060601004000C04040FB
:102F3000E00308080601FE200060202020A04004D5
:102F400006060601008080A0C0A0900306060601C8
:102F500000C040404040E0050404060000D0A8A89E
:102F600088040404060100E0909090040404060123
:102F700000609090600406060601FEE09090E080FC
:102F8000800406060601FE70909070101004040480
:102F9000060100A0D0808004040406010070C03047
:102FA000E00406060601004040E04050200404040E
:102FB0000601009090907004040406010090906057
:102FC0006005040406000088A8A850040404060153
:102FD00000906060900406060601FE90909070904C
:102FE00060040404060100F02040F0030707060116
:102FF00000204040804040200107070602FF8080FB
:1030000080808080800307070601008040402040C8
:10301000408004020206010350A0FFFFFFFFFFFFF4
:10302000FFFFFFFFFFFFFFFFFFFFFFFFFFFFFFFFB0
:10303000FFFFFFFFFFFFFFFFFFFFFF000000060095
:1030400007010606060200800080808080040606D4
:103050000601FF2070A0A070200507070600FF30C2
:103060004840F04040F8050505060000A85088508B
:10307000A80506060600008850F820F8200107077A
:103080000602FF808080008080800407070601FF21
:10309000708060906010E0030101060105A0060742
:1030A00007060000788494A494847803050506013B
:1030B0000160A06000E00505050600002850A05052
:1030C00028040303060100F01010040101060102A8
:1030D000F00607070600007884B4A4A484780401ED
:1030E00001060105F0040303060102609060050774
:1030F000070600FF2020F8202000F8030505060140
:103100000140A02040E0030505060101C020402049
:10311000C002020206020440800405050601FF9079
:1031200090B0D08005060606000078E8E8682828F8
:10313000010101060202800202020602FE40800333
:10314000050506010140C04040E0030505060101F8
:1031500040A04000E0050505060000A0502850A052
:103160000508080600FF40C0405070307810050880
:10317000080600FF40C040506808103805080806DF
:1031800000FFC0204030F03078100407070601002F
:103190002000206080906005070706000040202086
:1031A000507088880507070600001020205070889E
:1031B0008805070706000020502050708888050702
:1031C0000706000028502050708888050707060071
:1031D0000050002050708888050707060000205026
:1031E000205070888805060606000078A0F0A0A090
:1031F000B80408080601FE609080809060204004BA
:1032000007070601004020F080E080F00407070671
:1032100001002040F080E080F00407070601002054
:1032200050F080E080F00407070601005000F080B5
:10323000E080F00307070601008040E0404040E0E6
:103240000307070601002040E0404040E003070775
:1032500006010040A0E0404040E0030707060100EF
:10326000A000E0404040E00506060600007048E887
:1032700048487004070706010050A090D0B0909015
:103280000407070601004020609090906004070743
:10329000060100204060909090600407070601003E
:1032A0002050609090906004070706010050A060D5
:1032B0009090906004070706010050006090909085
:1032C000600505050600008850205088040808069F
:1032D00001FF1070B0B0D0D0E080040707060100F5
:1032E00040209090909060040707060100204090D5
:1032F00090909060040707060100205090909090F5
:103300006004070706010050009090909060050748
:103310000706000010208850202020040606060121
:103320000080E09090E0800406060601006090A016
:10333000A090A00407070601004020007090907044
:1033400004070706010020400070909070040707F2
:1033500006010020500070909070040707060100DD
:1033600050A0007090907004060606010050007096
:103370009090700407070601002050207090907014
:1033800005040406000070A8B0780406060601FED5
:103390007080807020400407070601004020006014
:1033A000B0C07004070706010020400060B0C07084
:1033B00004070706010020500060B0C07004060634
:1033C000060100500060B0C07003070706010080CE
:1033D0004000C04040E0030707060100204000C055
:1033E0004040E003070706010040A000C04040E065
:1033F000030606060100A000C04040E004070706DF
:1034000001003060107090906004070706010050C2
:10341000A000E090909004070706010040200060A3
:1034200090906004070706010020400060909060C3
:103430000407070601002050006090906004070711
:1034400006010050A000609090600406060601008E
:103450005000609090600505050600002000F8000F
:103460002004040406010070B0D0E0040707060140
:103470000040200090909070040707060100204053
:103480000090909070040707060100205000909073
:103490009070040606060100500090909070040998
:1034A000090601FE2040009090907090600408088A
:1034B0000601FE8080E09090E0808004080806010C
:1034C000FE500090909070906000091200FC0A017C
:1034D000E803D720FFFD0EFD0BFD00000009000EE4
:1034E000010B0B09040080808080808080000080B8
:1034F0008004040409030790909090080A0A0900C8
:1035000000242424FF2424FF242424070B0B090176
:10351000FF107C929050381412927C10070A0A090E
:10352000010042A4A4481010244A4A84070A0A0948
:103530000100609090906062948894620104040994
:10354000040780808080030C0C0903FF204040802A
:103550008080808080404020030C0C0903FF804065
:103560004020202020202040408007070709010339
:1035700010925438549210070707090101101010D7
:10358000FE1010100204040904FEC0C040800701B0
:1035900001090104FE020202090400C0C0070A0A70
:1035A00009010002040408101020404080070A0AA4
:1035B00009010038448282828282824438070A0AE2
:1035C000090100103050901010101010FE070A0A68
:1035D000090100384482020408102040FE070A0A4C
:1035E000090100FE020408180402028478070A0A8E
:1035F000090100040C14244484FE040404070A0A8C
:10360000090100FE808080F80402028478070A0A1B
:103610000901003C408080B8C482824438070A0A0D
:10362000090100FE020404080810101010070A0A1D
:1036300009010038448244384482824438070A0A27
:1036400009010038448282463A02020478020707E0
:10365000090400C0C0000000C0C00209090904FE3E
:10366000C0C0000000C0C040800509090902000870
:103670001020408040201008070404090102FE00C9
:1036800000FE0509090902008040201008102040B2
:1036900080070A0A09010038448202040810100059
:1036A00010070A0A09010038449AAAAAAAAA9C404B
:1036B0003C070A0A09010010282828447C44828219
:1036C00082070A0A090100F8848284F884828284CD
:1036D000F8070A0A0901003C42808080808080420D
:1036E0003C070A0A090100F884828282828282846D
:1036F000F8070A0A090100FE808080F88080808037
:10370000FE070A0A090100FE808080F88080808020
:1037100080070A0A09010038448280808E82824430
:1037200038070A0A09010082828282FE828282822E
:1037300082050A0A090200F82020202020202020EB
:10374000F8070A0A0901003E0808080808088888DE
:1037500070070A0A09010082848890A0D0888482B8
:1037600082070A0A09010080808080808080808032
:10377000FE070A0A0901008282C6AA928282828218
:1037800082070A0A0901008282C2A2928A86828284
:1037900082070A0A0901007C8282828282828282F6
:1037A0007C070A0A090100F884828284F8808080FC
:1037B00080080B0B0901FF384482828282828A448E
:1037C0003A01070A0A090100F884828284F8908885
:1037D0008482070A0A0901007C8280807C0202023E
:1037E000827C070A0A090100FE1010101010101048
:1037F0001010070A0A090100828282828282828274
:103800004438070A0A090100828282444444282875
:103810002810070A0A0901008282828292929292FB
:10382000AA44070A0A090100828244281010284489
:103830008282070A0A0901008282442810101010AF
:103840001010070A0A090100FE0204081020408037
:1038500080FE040C0C0903FFF08080808080808053
:10386000808080F0070A0A09010080404020101083
:1038700008040402040C0C0902FFF01010101010D0
:103880001010101010F007040409010610284482DB
:103890000801010900FFFF03030309030A80402018
:1038A0000707070901007C02027E82867A070A0A5E
:1038B000090100808080BCC2828282C2BC070707E7
:1038C0000901007C82808080827C070A0A0901004D
:1038D0000202027A86828282867A0707070901003D
:1038E0007C8282FE80827C070A0A0901001C222257
:1038F0002020F820202020070A0A0901FD7A84846C
:103900008478807C82827C070A0A0901008080809A
:10391000BCC28282828282050A0A0902006000001B
:10392000E02020202020F8050D0D0902FD180000E0
:1039300038080808080808888870070A0A0901007A
:10394000808080848890B0C88482050A0A090200B9
:10395000E02020202020202020F807070709010070
:10396000EC929292929282070707090100BCC282F0
:10397000828282820707070901007C82828282821A
:103980007C070A0A0901FDB8C4828282C4B880801B
:1039900080070A0A0901FD3A46828282463A0202FB
:1039A000020707070901009C6242404040400707A8
:1039B000070901007C82807C02827C0709090901D9
:1039C000002020FC20202020221C070707090100DE
:1039D0008282828282867A070707090100828244F6
:1039E000442828100707070901008282929292AAB0
:1039F0004407070709010082442810284482070A67
:103A00000A0901FD42422424241818109060070777
:103A100007090100FE0408102040FE060B0B0902F6
:103A2000001C20202020C0202020201C010C0C097C
:103A300004FF808080808080808080808080060B72
:103A40000B090100E0101010100C10101010E0070E
:103A5000030309010762928CFFFFFFFFFFFFFFFFD7
:103A6000FFFFFFFFFFFFFFFFFFFFFFFFFFFFFFFF66
:103A7000FFFFFFFFFFFFFFFFFF00000009000E0137
:103A80000B0B090400808000008080808080808093
:103A900006080809010008789490A0A47840070A55
:103AA0000A0901001C222020F8202060A25C0706E1
:103AB00006090103827C44447C82070A0A0901004A
:103AC000828244287C107C101010010B0B0904FF2B
:103AD0008080808080008080808080040B0B0902C1
:103AE000FF609080609090906010906003020209E7
:103AF000030BA0A00809090900013C4299A5A1A552
:103B000099423C050707090103609070907800F81E
:103B1000070808090101122448909048241206045D
:103B200004090102FC040404050101090204F80867
:103B300009090900013C42B9A5BDA9A5423C0601FD
:103B400001090109FC040404090306609090600760
:103B50000909090101101010FE10101000FE0406E2
:103B6000060901046090106080F004060609010453
:103B700060902010906003030309030A204080072F
:103B800009090901FE8282828282C6BA8080070A00
:103B90000A0901007E8A8A8A7A0A0A0A0A0A020245
:103BA00002090404C0C00403030902FD209060035D
:103BB000060609010440C0404040E0050606090130
:103BC000047088887000F8070808090101904824EB
:103BD0001212244890070A0A09010040C0404042DE
:103BE000E60A121A06070A0A09010040C040404CC2
:103BF000F2020C101E070A0A0901006090201092C0
:103C0000660A121A06070A0A09010010001010209D
:103C1000408082827C070E0E0901002010080010EF
:103C2000282828447C44828282070E0E090100085D
:103C300010200010282828447C44828282070E0E1F
:103C40000901001028440010282828447C4482825E
:103C500082070D0D09010034580010282828447CE3
:103C600044828282070D0D090100282800102828AF
:103C700028447C44828282070E0E09010010282805
:103C80001010282828447C44828282070A0A0901ED
:103C9000001E2828284E784888888E070D0D0901B7
:103CA000FD3C42808080808080423C082418070EC2
:103CB0000E09010020100800FE808080F8808080BE
:103CC00080FE070E0E09010008102000FE80808093
:103CD000F880808080FE070E0E0901001028440045
:103CE000FE808080F880808080FE070D0D09010035
:103CF000282800FE808080F880808080FE050E0EDF
:103D000009020040201000F8202020202020202040
:103D1000F8050E0E09020010204000F82020202097
:103D200020202020F8050E0E09020020508800F8FF
:103D30002020202020202020F8050D0D0902005011
:103D40005000F82020202020202020F8070A0A090F
:103D5000010078444242F24242424478070D0D0984
:103D600001003458008282C2A2928A86828282072F
:103D70000E0E090100201008007C8282828282825D
:103D800082827C070E0E090100081020007C8282CE
:103D90008282828282827C070E0E090100102844F2
:103DA000007C82828282828282827C070D0D0901E0
:103DB000003458007C82828282828282827C070D5B
:103DC0000D0901002828007C828282828282828200
:103DD0007C07070709010182442810284482070C48
:103DE0000C0901FF027C868A8A9292A2A2C27C8080
:103DF000070E0E0901002010080082828282828252
:103E000082824438070E0E090100081020008282C9
:103E10008282828282824438070E0E0901001028B5
:103E2000440082828282828282824438070D0D0998
:103E3000010028280082828282828282824438079E
:103E40000E0E090100081020008282442810101074
:103E5000101010070A0A0901008080FC828282FC8F
:103E6000808080060A0A09010038444448D048444A
:103E7000444458070B0B090100201008007C020283
:103E80007E82867A070B0B090100081020007C0255
:103E9000027E82867A070B0B090100102844007C01
:103EA00002027E82867A070A0A0901003458007CE1
:103EB00002027E82867A070A0A0901002828007C0D
:103EC00002027E82867A070C0C0901001028281055
:103ED000007C02027E82867A0707070901006C12C5
:103EE000127E90926C070A0A0901FD7C8280808014
:103EF000827C104830070B0B090100201008007C61
:103F00008282FE80827C070B0B09010008102000D2
:103F10007C8282FE80827C070B0B09010010284402
:103F2000007C8282FE80827C070A0A090100282820
:103F3000007C8282FE80827C050C0C09020080409D
:103F4000200000E02020202020F8050C0C090200B1
:103F50001020400000E02020202020F8050C0C0953
:103F600002002050880000E02020202020F8050BCF
:103F70000B09020050500000E02020202020F8070C
:103F80000B0B090100483050083C448282824438BF
:103F9000070A0A090100345800BCC2828282828268
:103FA000070B0B090100201008007C8282828282AC
:103FB0007C070B0B090100081020007C82828282A2
:103FC000827C070B0B090100102844007C8282824E
:103FD00082827C070A0A0901003458007C828282AE
:103FE00082827C070A0A0901002828007C828282DA
:103FF00082827C07090909010010381000FE0010B8
:1040000038100709090901FF027C8A8A92A2A27C62
:1040100080070B0B090100402010008282828282FF
:10402000867A070B0B090100081020008282828229
:1040300082867A070B0B09010010284400828282D5
:104040008282867A070A0A09010028280082828271
:104050008282867A070E0E0901FD04081000424292
:104060002424241818109060070B0B0901FE80808F
:10407000B8C4828282C4B88080070D0D0901FD2476
:1040800024004242242424181810906001050800DE
:10409000FF060121023520FFFF07FF06FF09005040
:1040A000221656808080800080153353A0A0A00285
:1040B00057575050F850F850500257572070A07082
:1040C00028702013355580A040A02002475740A0FB
:1040D000A040A0A050251353808080122656408017
:1040E00080808040122656804040404080024555E6
:1040F0009060F060900255552020F8202011335335
:10410000604080044151F011335340E04002465674
:1041100010102040808012365640A0A0A0A040126F
:10412000365640C0404040E00246566090106080E5
:10413000F0024656F020601090600246562060A0C3
:10414000F02020024656F080E01090600246566053
:1041500080E0909060024656F010202040400246D9
:10416000566090609090600246566090907010602B
:10417000122555C0C000C0C01136566060006040B6
:1041800080123656204080804020034353F000F0D8
:1041900012365680402020408012365640A02040E3
:1041A0000040015858304898A8A890403002465620
:1041B000609090F09090024656E090E09090E0027F
:1041C0004656609080809060024656E090909090B5
:1041D000E0024656F080E08080F0024656F080E033
:1041E000808080024656609080B090600246569073
:1041F00090F0909090123656E040404040E00246E9
:104200005670202020A04002465690A0C0A0A0904A
:104210000246568080808080F002465690F0F090F2
:10422000909002465690D0F0B0B090024656609002
:1042300090909060024656E09090E0808001475751
:10424000609090D0B06010024656E09090E0909060
:10425000024656609040209060123656E040404042
:104260004040024656909090909060024656909042
:1042700090906060024656909090F0F09002465602
:1042800090906060909002565688885020202002BE
:104290004656F010204080F0123656E08080808034
:1042A000E0024656808040201010123656E0202052
:1042B0002020E016325240A0014151F016225280D7
:1042C00040024454709090700246568080E0909076
:1042D000E012345460808060024656101070909056
:1042E0007002445460B0C060024656205040E04026
:1042F0004001455560907010600246568080E09005
:1043000090901236564000C04040E01137572000D0
:10431000202020A040024656808090E090901236E7
:1043200056C040404040E0025454D0A8A8A80244DF
:1043300054E090909002445460909060014555E0A4
:1043400090E080800145557090701010024454A098
:10435000D0808012345460C020C00246564040E0F5
:1043600040502002445490909070123454A0A0A069
:104370004002545488A8A8500244549060609001B0
:1043800045559090709060024454F02040F00247F0
:1043900057304020C02040302216568080808080D8
:1043A00080024757C02040304020C006425250A0F3
:1043B000FFFFFFFFFFFFFFFFFFFFFFFFFFFFFFFF0D
:1043C000FFFFFFFFFFFFFFFFFFFFFFFFFFFFFFFFFD
:1043D000FF090050221656800080808080014656DA
:1043E0002070A0A070200246562050E04050A0024D
:1043F000555588705070880256568850F820F8201D
:10440000221757808080008080800247577080E0AC
:10441000907010E0173151A002565670A8C8C8A875
:104420007014355560A06000E003435350A0501253
:104430003353E02020143151E002565670E8D8E89A
:10444000D870173151E015335340A0401235554014
:10445000E04000E014355540A02040E0143555C040
:1044600020C020C01622524080014555909090E017
:104470008002565678E8E8682828241151801122D5
:1044800052408014355540C04040E014355540A09E
:104490004000E0034353A050A0024757808080A013
:1044A00060F0200247578080A0D01020700247574C
:1044B00080408060A0F02012365640004080A0402E
:1044C00002475740206090F090900247572040608C
:1044D00090F0909002475760906090F09090024763
:1044E0005750A06090F0909002475790006090F075
:1044F000909002475760906090F0909002465670FE
:10450000A0A0F0A0B001475760908080906040026A
:1045100047574020F080E080F00247572040F0806D
:10452000E080F00247576090F080E080F00247574B
:104530009000F080E080F01237578040E04040402B
:10454000E01237572040E0404040E012375740A08B
:10455000E0404040E0123757A000E0404040E00219
:1045600056567048E848487002475750A090D0B05F
:1045700090900247574020609090906002475720EB
:10458000406090909060024757609060909090607B
:1045900002475750A060909090600247579000608B
:1045A00090909060123353A040A002465670B0B075
:1045B000D0D0E0024757402090909090600247573B
:1045C000204090909090600247576090909090901B
:1045D00060024757900090909090600257571020CB
:1045E000885020202002465680E09090E0800246CD
:1045F000566090A0A090A002475740200070909075
:10460000700247572040007090907002475720502A
:10461000007090907002475750A000709090700208
:1046200046565000709090700247576090607090AE
:104630009070025454F068B07811355560808060F5
:104640004002475740200060B0C0600247572040FA
:104650000060B0C06002475760900060B0C0600268
:104660004656500060B0C060123757804000C040CE
:1046700040E0123757204000C04040E0123757401A
:10468000A000C04040E0123656A000C04040E0020A
:104690004757A040A01070906002475750A000E01C
:1046A00090909002475740200060909060024757DA
:1046B00020400060909060024757609000609090AA
:1046C0006002475750A000609090600246569000EC
:1046D000609090601235554000E0004002445470F4
:1046E000B0D0E002475740200090909070024757AA
:1046F00020400090909070024757609000909090FA
:1047000070024656900090909070014858204000EA
:1047100090907090600147578080E090E080800129
:10472000475790009090709060000A1400FC0D02B2
:104730004A049920FFFC10FC0DFC0000000A001048
:10474000020D0D0A0400C0C0C0C0C0C0C0C0C0C0BF
:1047500000C0C00604040A0209CCCCCC48090B16E0
:104760000A01011B001B001B007F8036003600364B
:1047700000FF006C006C006C00080D0D0A010018B1
:104780007EDBD8D8D87E1B1B1BDB7E18090C180AD1
:1047900001007300DB00DE0076000C000C00180046
:1047A000180037003D806D806700090D1A0A01006E
:1047B00038006C006C006C00780030007000D8008D
:1047C000CD80C700C600EF0079800205050A040805
:1047D000C0C0C0C080050D0D0A030018306060C065
:1047E000C0C0C0C060603018050D0D0A0200C06076
:1047F00030301818181818303060C00807070A0140
:104800000366663CFF3C66660807070A0103181842
:1048100018FF1818180403030A03FF7070E008015A
:10482000010A0106FF0303030A0400E0E0E0070CAD
:104830000C0A020006060C0C181830306060C0C06C
:10484000080D0D0A0100183C6666C3C3C3C3C366E6
:10485000663C18080D0D0A0100183878D818181889
:104860001818181818FF080D0D0A01003C66C3C37C
:104870000303061C3060C0C0FF080D0D0A01003C98
:1048800066C3C303061C0603C3C3663C080D0D0ABA
:10489000010002060E1E3666C6C6FF06060606089C
:1048A0000D0D0A0100FFC0C0C0C0DCE6030303C356
:1048B000663C080D0D0A01003C66C2C0C0DCE6C3C0
:1048C000C3C3C3663C080D0D0A0100FF03030606BF
:1048D0000C0C181830306060080D0D0A01003C66A1
:1048E000C3C3C3663C66C3C3C3663C080D0D0A015F
:1048F000003C66C3C3C3C3673B030343663C030872
:10490000080A0400E0E000000000E0E00409090AF1
:1049100003FF7070000000007070E0070D0D0A01C9
:104920000002060C183060C06030180C0602080641
:10493000060A0103FF00000000FF070D0D0A020038
:1049400080C06030180C060C183060C080080D0D57
:104950000A01003C66C3C3C3060C181818001818D7
:10496000080D0D0A01003C66C3CFDFDBDBDBDECCCC
:10497000C0633E080D0D0A0100183C6666C3C3C340
:10498000FFC3C3C3C3C3080D0D0A0100F8CCC6C6DC
:10499000C6CCFCC6C3C3C3C6FC080D0D0A01003C4F
:1049A00066C3C0C0C0C0C0C0C0C3663C080D0D0A0D
:1049B0000100FCC6C3C3C3C3C3C3C3C3C3C6FC088F
:1049C0000D0D0A0100FFC0C0C0C0C0FCC0C0C0C007
:1049D000C0FF080D0D0A0100FFC0C0C0C0C0FCC070
:1049E000C0C0C0C0C0080D0D0A01003C66C3C0C0F5
:1049F000C0CFC3C3C3C3673D080D0D0A0100C3C3C5
:104A0000C3C3C3C3FFC3C3C3C3C3C3080D0D0A01DC
:104A100000FF1818181818181818181818FF090D7A
:104A20001A0A01001F8006000600060006000600A4
:104A3000060006000600C600C6006C003800080D1F
:104A40000D0A0100C3C3C6C6CCCCF8CCCCC6C6C3C5
:104A5000C3080D0D0A0100C0C0C0C0C0C0C0C0C0A6
:104A6000C0C0C0FF080D0D0A0100C3C3E7E7FFDBAC
:104A7000DBDBDBC3C3C3C3080D0D0A0100C3E3E3E3
:104A8000F3F3DBDBCFCFC7C7C3C3080D0D0A0100AB
:104A90003C66C3C3C3C3C3C3C3C3C3663C080D0DD5
:104AA0000A0100FCC6C3C3C3C3C6FCC0C0C0C0C0AB
:104AB000080E0E0A01FF3C66C3C3C3C3C3C3C3DBF6
:104AC000CF663E03080D0D0A0100FCC6C3C3C3C375
:104AD000C6FCCCC6C6C3C3080D0D0A01003C66C3A4
:104AE000C0C0603C060303C3663C080D0D0A01000C
:104AF000FF181818181818181818181818080D0D75
:104B00000A0100C3C3C3C3C3C3C3C3C3C3C3663C97
:104B1000080D0D0A0100C3C3C3C36666663C3C3C76
:104B2000181818080D0D0A0100C3C3C3C3C3DBDB8B
:104B3000DBDBE7E7C3C3080D0D0A0100C3C36666EC
:104B40003C3C183C3C6666C3C3080D0D0A0100C31B
:104B5000C366663C3C18181818181818080D0D0A7A
:104B60000100FF0303060C0C18303060C0C0FF06C4
:104B70000D0D0A0200FCC0C0C0C0C0C0C0C0C0C093
:104B8000C0FC070C0C0A0200C0C06060303018186E
:104B90000C0C0606060D0D0A0200FC0C0C0C0C0C8D
:104BA0000C0C0C0C0C0CFC0804040A0109183C66E3
:104BB000C30901020A01FFFF800403030A030AC0BC
:104BC00060300808080A01003E63037FC3C3C37D49
:104BD000080D0D0A0100C0C0C0C0C0DCE6C3C3C3DD
:104BE000C3E6DC0808080A01003E63C0C0C0C06319
:104BF0003E080D0D0A010003030303033B67C3C313
:104C0000C3C3673B0808080A01003C66C3FFC0C075
:104C1000633E080D0D0A01001E33333030FC303086
:104C20003030303030080C0C0A01FC7DC7C6C6C6D7
:104C30007CC07EC3C3C37E080D0D0A0100C0C0C086
:104C4000C0C0DCE6C3C3C3C3C3C3080B0B0A010067
:104C500018180078181818181818FF070F0F0A02EC
:104C6000FC0606001E06060606060606C6C6C67C26
:104C7000080D0D0A0100C0C0C0C0C0C6CCD8F0F8F5
:104C8000CCC6C3080D0D0A0100781818181818189A
:104C90001818181818FF0808080A0100B6FFDBDB0F
:104CA000DBDBDBDB0808080A0100DCE6C3C3C3C3A7
:104CB000C3C30808080A01003C66C3C3C3C3663CFB
:104CC000080C0C0A01FCDCE6C3C3C3C3E6DCC0C0AD
:104CD000C0C0080C0C0A01FC3B67C3C3C3C3673BDD
:104CE000030303030808080A0100DE7360606060C4
:104CF00060600808080A01007EC3C07E0303C37E0B
:104D0000080B0B0A0100303030FC303030303033CB
:104D10001E0808080A0100C3C3C3C3C3C3673B0816
:104D200008080A0100C3C366663C3C181808080856
:104D30000A0100C3C3C3DBDBDBFF660808080A0106
:104D400000C3663C18183C66C3080C0C0A01FCC37F
:104D5000C3C3C3C3C3673B03C3663C0708080A0257
:104D600000FE060C183060C0FE080D0D0A01000F91
:104D70001818181818F018181818180F020D0D0A1E
:104D80000400C0C0C0C0C0C0C0C0C0C0C0C0C00857
:104D90000D0D0A0100F018181818180F1818181817
:104DA00018F00803030A010A73DBCEFFFFFFFFFFC1
:104DB000FFFFFFFFFFFFFFFFFFFFFFFFFFFFFFFF03
:104DC000FFFFFFFFFFFFFFFFFFFFFFFF0000000AE5
:104DD0000010020D0D0A0400C0C000C0C0C0C0C059
:104DE000C0C0C0C0C0070C0C0A010018183C66C245
:104DF000C0C0C2663C1818090C180A01001E003316
:104E000000330030003000FC00300030003000F88B
:104E100000AD80E7000909120A00018080DD807F73
:104E2000006300630063007F00DD808080080B0B5F
:104E30000A010081C3663C7E187E18181818020DFE
:104E40000D0A0400C0C0C0C0C0000000C0C0C0C087
:104E5000C0080D0D0A01003C66C66078CC66331EA2
:104E60000663663C0602020A020BCCCC080B0B0A56
:104E700001003C66C3BDA5A1A5BDC3663C080909E8
:104E80000A01043E43037FC3C37D00FF090B160ADA
:104E9000000004800D801B0036006C00D8006C0000
:104EA00036001B000D8004800804040A0104FFFF83
:104EB00003030601010A0206FC080B0B0A01003C71
:104EC00066C3BDA5BDA9ADC3663C0801010A010DBD
:104ED000FF0606060A02073078CCCC7830080707B0
:104EE0000A01021818FF181800FF0507070A020632
:104EF00070D8183060C0F80507070A020670D81885
:104F00003018D8700403030A030A3060C0070A0A85
:104F10000A01FDC6C6C6C6C6EEFAC0C0C0080D0D61
:104F20000A01007FFFFBFBFB7B1B1B1B1B1B1B1BCF
:104F30000303030A0405E0E0E00504040A02FC3070
:104F400018D8700407070A020660E060606060F02D
:104F50000709090A0104386CC6C6C66C3800FE0988
:104F60000B160A01009000D8006C0036001B000DE3
:104F7000801B0036006C00D8009000080C0C0A0161
:104F80000140C04142E40812264A9E0202080C0C6D
:104F90000A010140C04142E40816294182040F0879
:104FA0000C0C0A0101E0106112E40812264A9F026B
:104FB00002080D0D0A01001818001818183060C3F7
:104FC000C3C3663C080F0F0A010060301800183C8C
:104FD00066C3C3C3FFC3C3C3C3080F0F0A010006E0
:104FE0000C1800183C66C3C3C3FFC3C3C3C3080F78
:104FF0000F0A0100183C6600183C66C3C3C3FFC318
:10500000C3C3C3080F0F0A0100327E4C00183C6670
:10501000C3C3C3FFC3C3C3C3080F0F0A010066663F
:1050200000183C6666C3C3C3FFC3C3C3C3081010E4
:105030000A01003C66663C00183C66C3C3C3FFC35C
:10504000C3C3C3080D0D0A01001F3C6C6CCCCCFF20
:10505000CCCCCCCCCCCF0811110A01FC3C66C3C02F
:10506000C0C0C0C0C0C0C3663C180C6C38080F0F6D
:105070000A010060301800FFC0C0C0C0FCC0C0C042
:10508000C0FF080F0F0A01000C183000FFC0C0C09D
:10509000C0FCC0C0C0C0FF080F0F0A0100183C666A
:1050A00000FFC0C0C0C0FCC0C0C0C0FF080F0F0AD6
:1050B000010066660000FFC0C0C0C0FCC0C0C0C028
:1050C000FF060F0F0A020060301800FC303030304D
:1050D0003030303030FC060F0F0A0200183060000C
:1050E000FC303030303030303030FC060F0F0A02E8
:1050F000003078CC00FC303030303030303030FC94
:10510000060F0F0A0200CCCC00FC303030303030BB
:1051100030303030FC090D1A0A00007E0063006157
:1051200080618061806180F98061806180618061DF
:105130008063007E00080F0F0A0100327E4C00C31E
:10514000E3F3F3DBDBCFCFC7C3C3080F0F0A0100C4
:1051500030180C003C66C3C3C3C3C3C3C3663C085A
:105160000F0F0A01000C1830003C66C3C3C3C3C351
:10517000C3C3663C080F0F0A0100183C66003C667A
:10518000C3C3C3C3C3C3C3663C080F0F0A010032C5
:105190007E4C003C66C3C3C3C3C3C3C3663C080F95
:1051A0000F0A01006666003C66C3C3C3C3C3C3C322
:1051B000C3663C0708080A010082C66C38386CC612
:1051C00082080F0F0A01FF013E66C7C7CBCBCBD3C6
:1051D000D3D3E3667C80080F0F0A010030180C005F
:1051E000C3C3C3C3C3C3C3C3C3663C080F0F0A0111
:1051F000000C183000C3C3C3C3C3C3C3C3C3663CDE
:10520000080F0F0A0100183C6600C3C3C3C3C3C321
:10521000C3C3C3663C080F0F0A0100666600C3C320
:10522000C3C3C3C3C3C3C3C3663C080F0F0A010093
:105230000C183000C3C366663C3C181818181807D1
:105240000D0D0A0200C0C0C0FCC6C6C6C6C6FCC062
:10525000C0C0080D0D0A01001C36636366EC6C6665
:10526000636363666C080C0C0A010030180C007E46
:10527000C3037FC3C3C37D080C0C0A01000C1830A4
:10528000007EC3037FC3C3C37D080C0C0A01001852
:105290003C66007EC3037FC3C3C37D080C0C0A01B8
:1052A00000327E4C007EC3037FC3C3C37D080B0B5B
:1052B0000A01006666007EC3037FC3C3C37D080D79
:1052C0000D0A01003C66663C007EC3037FC3C3C376
:1052D0007D0808080A0100769B1B1E78D8D96E0845
:1052E0000C0C0A01FC3E63C0C0C0C0633E180C6CCD
:1052F00038080C0C0A0100603018003C66C3FFC07F
:10530000C0633E080C0C0A0100060C18003C66C382
:10531000FFC0C0633E080C0C0A0100183C66003C4C
:1053200066C3FFC0C0633E080B0B0A01006666003F
:105330003C66C3FFC0C0633E080C0C0A010060302D
:10534000180078181818181818FF080C0C0A010013
:105350000C18300078181818181818FF080C0C0AC8
:105360000100183C660078181818181818FF080B68
:105370000B0A010066660078181818181818FF083C
:105380000D0D0A010088D87070D88C3E67C3C3C366
:10539000663C080C0C0A0100327E4C00DCE6C3C3FC
:1053A000C3C3C3C3080C0C0A0100603018003C667C
:1053B000C3C3C3C3663C080C0C0A0100060C1800EA
:1053C0003C66C3C3C3C3663C080C0C0A0100183C0E
:1053D00066003C66C3C3C3C3663C080C0C0A0100EC
:1053E000327E4C003C66C3C3C3C3663C080B0B0A49
:1053F00001006666003C66C3C3C3C3663C080A0A74
:105400000A010118180000FFFF00001818080A0A16
:105410000A01FF013E66CBCBD3D3667C80080C0C1F
:105420000A010030180C00C3C3C3C3C3C3673B08E1
:105430000C0C0A0100060C1800C3C3C3C3C3C36726
:105440003B080C0C0A0100183C6600C3C3C3C3C36D
:10545000C3673B080B0B0A0100666600C3C3C3C3E6
:10546000C3C3673B0810100A01FC0C183000C3C30B
:10547000C3C3C3C3673B03C3663C0711110A02FCE5
:10548000C0C0C0C0C0C0F8CCC6C6C6CCF8C0C0C082
:10549000C0080F0F0A01FC666600C3C3C3C3C3C3C1
:1054A000673B03C3663C00000A0B02090C0D0E08A3
:1054B00007030401000000000000000000000000DD
:1054C00000000000000000000000000000000000DC
:1054D0000000121110000000000000000000000099
:1054E00000000000000000000000000000000000BC
:1054F0000000000000000000000000000102102079
:1055000020080810204010204080020102010804F9
:10551000020101020408102040808040201008048D
:1055200002018004020180402010080402010804E6
:10553000020101020408102040800102040810202A
:105540004080100804088010204004408010204053
:10555000048005050505070508080808020202027F
:105560000A0A0808040404040101010101010101FF
:105570000303030303030303040707070C0C0C0CCA
:105580000C0C0C0C020202020606060606060606B3
:105590000B0B0B0B0B0B0B0B07070A0A0A0A0A0A69
:1055A0000505050404040808000020002300260067
:1055B00029002C002F003200000100000301060129
:1055C000090100002200250028002B002E003100D8
:1055D000340002010000050108010B010000210058
:1055E000240027002A002D003000330001010000B4
:1055F000040107010A01024E414E494E49545949DE
:105600004E46CDCCCC3D0AD7233C17B7D13877CC0A
:105610002B329595E6241FB14F0A0000204100006F
:10562000C84200401C4620BCBE4CCA1B0E5AAEC528
:105630009D74295A62EB2D5A11241FBECFEFD1E27F
:10564000DEBFCDBF00E00CBF14E0A0E0B2E0E6EFAB
:10565000F6E002E00BBF02C007900D92AE3DB1072D
:10566000D9F725E1AEEDB4E001C01D92AE30B2072E
:10567000E1F716E5C6E3D6E500E006C0229701098A
:10568000FE010BBF0E941EFDC233D10780E0080758
:10569000A9F70E94FCF70D946A030C940000EF92A6
:1056A000FF920F931F93CF93DF931F92CDB7DEB777
:1056B0008C017B01460FF70161917F01F801808128
:1056C000918149830F94B302F80180819181019601
:1056D0009183808349814E11EECF0F90DF91CF915E
:1056E0001F910F91FF90EF900895EF92FF920F930B
:1056F0001F93CF93DF931F92CDB7DEB78C017B0151
:10570000460FF8018081918149830F94AB02F70124
:1057100081937F01F801808191810196918380833B
:1057200049814E11EECF0F90DF91CF911F910F91D4
:10573000FF90EF9008950F931F93CF93DF93CDB712
:10574000DEB72A970FB6F894DEBF0FBECDBF80E359
:1057500090E3A0E3B0E08D839E83AF83B88704E637
:1057600010E01A87098744E0BE016B5F7F4FCE01CE
:10577000099695DF40E161E571E1CE0109968FDF81
:1057800040E161E671E1CE01099689DF40E161E423
:1057900071E1CE01099683DF44E069E371E1CE0156
:1057A00009967DDF44E065E371E1CE01099677DF7C
:1057B00044E06DE371E1CE01099671DF44E065E2FA
:1057C00071E1CE0109966BDF44E061E771E1CE0142
:1057D000099665DF44E061E371E1CE0109965FDF80
:1057E00044E06DE271E1CE01099659DF44E069E2DF
:1057F00071E1CE01099653DF4CE069E577E0CE0117
:1058000009964DDF42E060ED74E1CE01099647DF75
:1058100042E06EEC74E1CE01099641DF42E06CECAF
:1058200074E1CE0109963BDF42E06AEC74E1CE01FF
:10583000099635DF42E068EC74E1CE0109962FDF6E
:1058400042E066EC74E1CE01099629DF44E066E4AB
:1058500077E0CE01099623DF44E06EE672E0CE01E8
:1058600009961DDF44E06AE672E0CE01099617DF73
:1058700044E066E672E0CE01099611DF42E063EC97
:1058800072E1CE0109960BDF41E065E777E0CE01DA
:10589000099605DF44E061E272E0CE010996FFDE81
:1058A00086E591E3A3E3B0E089839A83AB83BC836D
:1058B0001A87098744E0BE016F5F7F4FCE010996CA
:1058C000EEDEE1E6F9E08491882341F09091C0009A
:1058D00095FFFCCF8093C6003196F5CFEAEAF3E05E
:1058E0008491882341F09091C00095FFFCCF809374
:1058F000C6003196F5CF8091C00085FFFCCF8AE0CD
:105900008093C6002A960FB6F894DEBF0FBECDBFB7
:10591000DF91CF911F910F910895CF93DF93C1E64F
:10592000D9E0FE018491882341F09091C00095FF59
:10593000FCCF8093C6003196F5CFEAE9F3E084917D
:10594000882341F09091C00095FFFCCF8093C60062
:105950003196F5CF8091C00085FFFCCF8AE080931F
:10596000C600FE018491E1E6F9E0882349F09091B8
:10597000C00095FFFCCF8093C60031968491F5CF8F
:1059800040915111509152116091531170915411E5
:1059900082E993E00E945E35409155115091561175
:1059A00060915711709158118FE893E00E945E3515
:1059B0004091591150915A1160915B1170915C1195
:1059C0008CE893E00E945E3540915D1150915E112C
:1059D00060915F117091601189E893E00E945E35DB
:1059E0008091C00085FFFCCF8AE08093C600FE0155
:1059F0008491E1E6F9E0882349F09091C00095FF99
:105A0000FCCF8093C60031968491F5CFEFE6F3E0AA
:105A10008491882341F09091C00095FFFCCF809342
:105A2000C6003196F5CF8091C00085FFFCCF8AE09B
:105A30008093C600FE018491E1E6F9E0882349F0F5
:105A40009091C00095FFFCCF8093C6003196849161
:105A5000F5CF409161115091621160916311709185
:105A6000641186E693E00E945E3540916511509185
:105A70006611609167117091681183E693E00E944E
:105A80005E354091691150916A1160916B1170916E
:105A90006C1180E693E00E945E3540916D1150914B
:105AA0006E1160916F11709170118DE593E00E94FD
:105AB0005E358091C00085FFFCCF8AE08093C600F0
:105AC000FE018491E1E6F9E0882349F09091C0005D
:105AD00095FFFCCF8093C60031968491F5CFEFE31C
